{
  "contractName": "DepositSlot",
  "abi": [
    {
      "constant": true,
      "inputs": [],
      "name": "LATX",
      "outputs": [
        {
          "name": "",
          "type": "address"
        }
      ],
      "payable": false,
      "stateMutability": "view",
      "type": "function"
    },
    {
      "constant": true,
      "inputs": [],
      "name": "wrapper",
      "outputs": [
        {
          "name": "",
          "type": "address"
        }
      ],
      "payable": false,
      "stateMutability": "view",
      "type": "function"
    },
    {
      "inputs": [
        {
          "name": "_wrapper",
          "type": "address"
        }
      ],
      "payable": false,
      "stateMutability": "nonpayable",
      "type": "constructor"
    },
    {
      "constant": false,
      "inputs": [],
      "name": "collect",
      "outputs": [],
      "payable": false,
      "stateMutability": "nonpayable",
      "type": "function"
    }
  ],
  "bytecode": "0x608060405234801561001057600080fd5b5060405160208061047b83398101806040528101908080519060200190929190505050806000806101000a81548173ffffffffffffffffffffffffffffffffffffffff021916908373ffffffffffffffffffffffffffffffffffffffff160217905550506103f8806100836000396000f300608060405260043610610057576000357c0100000000000000000000000000000000000000000000000000000000900463ffffffff168063916e66271461005c578063ac210cc7146100b3578063e52253811461010a575b600080fd5b34801561006857600080fd5b50610071610121565b604051808273ffffffffffffffffffffffffffffffffffffffff1673ffffffffffffffffffffffffffffffffffffffff16815260200191505060405180910390f35b3480156100bf57600080fd5b506100c8610139565b604051808273ffffffffffffffffffffffffffffffffffffffff1673ffffffffffffffffffffffffffffffffffffffff16815260200191505060405180910390f35b34801561011657600080fd5b5061011f61015e565b005b732f85e502a988af76f7ee6d83b7db8d6c0a823bf981565b6000809054906101000a900473ffffffffffffffffffffffffffffffffffffffff1681565b60008060009054906101000a900473ffffffffffffffffffffffffffffffffffffffff1673ffffffffffffffffffffffffffffffffffffffff163373ffffffffffffffffffffffffffffffffffffffff161415156101bb57600080fd5b732f85e502a988af76f7ee6d83b7db8d6c0a823bf973ffffffffffffffffffffffffffffffffffffffff166370a08231306040518263ffffffff167c0100000000000000000000000000000000000000000000000000000000028152600401808273ffffffffffffffffffffffffffffffffffffffff1673ffffffffffffffffffffffffffffffffffffffff168152602001915050602060405180830381600087803b15801561026a57600080fd5b505af115801561027e573d6000803e3d6000fd5b505050506040513d602081101561029457600080fd5b8101908080519060200190929190505050905060008114156102b557600080fd5b732f85e502a988af76f7ee6d83b7db8d6c0a823bf973ffffffffffffffffffffffffffffffffffffffff1663a9059cbb6000809054906101000a900473ffffffffffffffffffffffffffffffffffffffff16836040518363ffffffff167c0100000000000000000000000000000000000000000000000000000000028152600401808373ffffffffffffffffffffffffffffffffffffffff1673ffffffffffffffffffffffffffffffffffffffff16815260200182815260200192505050602060405180830381600087803b15801561038d57600080fd5b505af11580156103a1573d6000803e3d6000fd5b505050506040513d60208110156103b757600080fd5b810190808051906020019092919050505050505600a165627a7a72305820595f89c076886a530545f989ba62c193d5436bd2b8ddbacaf3ec2386b35c0c0d0029",
  "source": "pragma solidity ^0.4.4;\r\n\r\n// ERC20-compliant wrapper token for LATX\r\n// adapted from code provided by u/JonnyLatte\r\n\r\ncontract TokenInterface {\r\n    mapping (address => uint256) balances;\r\n    mapping (address => mapping (address => uint256)) allowed;\r\n\r\n    uint256 public totalSupply;\r\n\r\n    function balanceOf(address _owner) constant returns (uint256 balance);\r\n    function transfer(address _to, uint256 _amount) returns (bool success);\r\n    function transferFrom(\r\n        address _from, address _to, uint256 _amount) returns (bool success);\r\n    function approve(address _spender, uint256 _amount) returns (bool success);\r\n    function allowance(\r\n        address _owner, address _spender) constant returns (uint256 remaining);\r\n\r\n    event Transfer(address indexed _from, address indexed _to, uint256 _amount);\r\n    event Approval(\r\n        address indexed _owner, address indexed _spender, uint256 _amount);\r\n}\r\n\r\ncontract Token is TokenInterface {\r\n    function balanceOf(address _owner) constant returns (uint256 balance) {\r\n        return balances[_owner];\r\n    }\r\n\r\n    function _transfer(address _to,\r\n        uint256 _amount) internal returns (bool success) {\r\n        if (balances[msg.sender] >= _amount && _amount > 0) {\r\n            balances[msg.sender] -= _amount;\r\n            balances[_to] += _amount;\r\n            Transfer(msg.sender, _to, _amount);\r\n            return true;\r\n        } else {\r\n            return false;\r\n        }\r\n    }\r\n\r\n    function _transferFrom(address _from,\r\n        address _to,\r\n        uint256 _amount) internal returns (bool success) {\r\n        if (balances[_from] >= _amount\r\n        && allowed[_from][msg.sender] >= _amount\r\n        && _amount > 0) {\r\n\r\n            balances[_to] += _amount;\r\n            balances[_from] -= _amount;\r\n            allowed[_from][msg.sender] -= _amount;\r\n            Transfer(_from, _to, _amount);\r\n            return true;\r\n        } else {\r\n            return false;\r\n        }\r\n    }\r\n\r\n    function approve(address _spender, uint256 _amount) returns (bool success) {\r\n        allowed[msg.sender][_spender] = _amount;\r\n        Approval(msg.sender, _spender, _amount);\r\n        return true;\r\n    }\r\n\r\n    function allowance(address _owner,\r\n        address _spender) constant returns (uint256 remaining) {\r\n        return allowed[_owner][_spender];\r\n    }\r\n}\r\n\r\ncontract DepositSlot {\r\n    address public constant LATX = 0x2f85E502a988AF76f7ee6D83b7db8d6c0A823bf9;\r\n\r\n    address public wrapper;\r\n\r\n    modifier onlyWrapper {\r\n        if (msg.sender != wrapper) throw;\r\n        _;\r\n    }\r\n\r\n    function DepositSlot(address _wrapper) {\r\n        wrapper = _wrapper;\r\n    }\r\n\r\n    function collect() onlyWrapper {\r\n        uint amount = TokenInterface(LATX).balanceOf(this);\r\n        if (amount == 0) throw;\r\n\r\n        TokenInterface(LATX).transfer(wrapper, amount);\r\n    }\r\n}\r\n\r\ncontract LatiumXTokenWrapped is Token {\r\n    string public constant standard = \"Token 0.1\";\r\n    string public constant name = \"LatiumX Wrapped\";\r\n    string public constant symbol = \"LATXW\";\r\n    uint8 public constant decimals = 8;\r\n\r\n    address public constant LATX = 0x2f85E502a988AF76f7ee6D83b7db8d6c0A823bf9;\r\n\r\n    mapping (address => address) depositSlots;\r\n\r\n    function createPersonalDepositAddress() returns (address depositAddress) {\r\n        if (depositSlots[msg.sender] == 0) {\r\n            depositSlots[msg.sender] = new DepositSlot(this);\r\n        }\r\n\r\n        return depositSlots[msg.sender];\r\n    }\r\n\r\n    function getPersonalDepositAddress(\r\n        address depositer) constant returns (address depositAddress) {\r\n        return depositSlots[depositer];\r\n    }\r\n\r\n    function processDeposit() {\r\n        address depositSlot = depositSlots[msg.sender];\r\n        if (depositSlot == 0) throw;\r\n\r\n        DepositSlot(depositSlot).collect();\r\n\r\n        uint balance = TokenInterface(LATX).balanceOf(this);\r\n        if (balance <= totalSupply) throw;\r\n\r\n        uint freshLATXW = balance - totalSupply;\r\n        totalSupply += freshLATXW;\r\n        balances[msg.sender] += freshLATXW;\r\n        Transfer(address(this), msg.sender, freshLATXW);\r\n    }\r\n\r\n    function transfer(address _to,\r\n        uint256 _amount) returns (bool success) {\r\n        if (_to == address(this)) {\r\n            withdrawLATX(_amount);   // convert back to LATX\r\n            return true;\r\n        } else {\r\n            return _transfer(_to, _amount);     // standard transfer\r\n        }\r\n    }\r\n\r\n    function transferFrom(address _from,\r\n        address _to,\r\n        uint256 _amount) returns (bool success) {\r\n        if (_to == address(this)) throw;        // not supported\r\n        return _transferFrom(_from, _to, _amount);\r\n    }\r\n\r\n\r\n    function withdrawLATX(uint amount) internal {\r\n        if (balances[msg.sender] < amount) throw;\r\n\r\n        balances[msg.sender] -= amount;\r\n        totalSupply -= amount;\r\n        Transfer(msg.sender, address(this), amount);\r\n\r\n        TokenInterface(LATX).transfer(msg.sender, amount);\r\n    }\r\n}",
  "sourcePath": "C:\\Users\\1\\IdeaProjects\\latx-wrapper\\webpack\\contracts\\LatiumXWrapper.sol",
  "compiler": {
    "name": "solc",
    "version": "0.4.24+commit.e67f0147.Emscripten.clang"
  },
  "schemaVersion": "2.0.0",
  "updatedAt": "2018-05-28T17:43:25.889Z"
}