{
  "contractName": "LatiumX",
  "abi": [
    {
      "constant": true,
      "inputs": [],
      "name": "name",
      "outputs": [
        {
          "name": "",
          "type": "string"
        }
      ],
      "payable": false,
      "stateMutability": "view",
      "type": "function"
    },
    {
      "constant": true,
      "inputs": [],
      "name": "totalSupply",
      "outputs": [
        {
          "name": "",
          "type": "uint256"
        }
      ],
      "payable": false,
      "stateMutability": "view",
      "type": "function"
    },
    {
      "constant": true,
      "inputs": [],
      "name": "decimals",
      "outputs": [
        {
          "name": "",
          "type": "uint8"
        }
      ],
      "payable": false,
      "stateMutability": "view",
      "type": "function"
    },
    {
      "constant": true,
      "inputs": [
        {
          "name": "",
          "type": "address"
        }
      ],
      "name": "balanceOf",
      "outputs": [
        {
          "name": "",
          "type": "uint256"
        }
      ],
      "payable": false,
      "stateMutability": "view",
      "type": "function"
    },
    {
      "constant": true,
      "inputs": [],
      "name": "owner",
      "outputs": [
        {
          "name": "",
          "type": "address"
        }
      ],
      "payable": false,
      "stateMutability": "view",
      "type": "function"
    },
    {
      "constant": true,
      "inputs": [],
      "name": "symbol",
      "outputs": [
        {
          "name": "",
          "type": "string"
        }
      ],
      "payable": false,
      "stateMutability": "view",
      "type": "function"
    },
    {
      "inputs": [],
      "payable": false,
      "stateMutability": "nonpayable",
      "type": "constructor"
    },
    {
      "anonymous": false,
      "inputs": [
        {
          "indexed": true,
          "name": "_from",
          "type": "address"
        },
        {
          "indexed": true,
          "name": "_to",
          "type": "address"
        },
        {
          "indexed": false,
          "name": "_value",
          "type": "uint256"
        }
      ],
      "name": "Transfer",
      "type": "event"
    },
    {
      "constant": false,
      "inputs": [
        {
          "name": "_to",
          "type": "address"
        },
        {
          "name": "_value",
          "type": "uint256"
        }
      ],
      "name": "transfer",
      "outputs": [],
      "payable": false,
      "stateMutability": "nonpayable",
      "type": "function"
    }
  ],
  "bytecode": "0x608060405234801561001057600080fd5b50336000806101000a81548173ffffffffffffffffffffffffffffffffffffffff021916908373ffffffffffffffffffffffffffffffffffffffff160217905550600860ff16600a0a6311e1a30002600160008060009054906101000a900473ffffffffffffffffffffffffffffffffffffffff1673ffffffffffffffffffffffffffffffffffffffff1673ffffffffffffffffffffffffffffffffffffffff1681526020019081526020016000208190555061063c806100d26000396000f300608060405260043610610083576000357c0100000000000000000000000000000000000000000000000000000000900463ffffffff16806306fdde031461008857806318160ddd14610118578063313ce5671461014357806370a08231146101745780638da5cb5b146101cb57806395d89b4114610222578063a9059cbb146102b2575b600080fd5b34801561009457600080fd5b5061009d6102ff565b6040518080602001828103825283818151815260200191508051906020019080838360005b838110156100dd5780820151818401526020810190506100c2565b50505050905090810190601f16801561010a5780820380516001836020036101000a031916815260200191505b509250505060405180910390f35b34801561012457600080fd5b5061012d610338565b6040518082815260200191505060405180910390f35b34801561014f57600080fd5b50610158610349565b604051808260ff1660ff16815260200191505060405180910390f35b34801561018057600080fd5b506101b5600480360381019080803573ffffffffffffffffffffffffffffffffffffffff16906020019092919050505061034e565b6040518082815260200191505060405180910390f35b3480156101d757600080fd5b506101e0610366565b604051808273ffffffffffffffffffffffffffffffffffffffff1673ffffffffffffffffffffffffffffffffffffffff16815260200191505060405180910390f35b34801561022e57600080fd5b5061023761038b565b6040518080602001828103825283818151815260200191508051906020019080838360005b8381101561027757808201518184015260208101905061025c565b50505050905090810190601f1680156102a45780820380516001836020036101000a031916815260200191505b509250505060405180910390f35b3480156102be57600080fd5b506102fd600480360381019080803573ffffffffffffffffffffffffffffffffffffffff169060200190929190803590602001909291905050506103c4565b005b6040805190810160405280600781526020017f4c617469756d580000000000000000000000000000000000000000000000000081525081565b600860ff16600a0a6311e1a3000281565b600881565b60016020528060005260406000206000915090505481565b6000809054906101000a900473ffffffffffffffffffffffffffffffffffffffff1681565b6040805190810160405280600481526020017f4c4154580000000000000000000000000000000000000000000000000000000081525081565b60008273ffffffffffffffffffffffffffffffffffffffff16141515156103ea57600080fd5b8173ffffffffffffffffffffffffffffffffffffffff163373ffffffffffffffffffffffffffffffffffffffff161415151561042557600080fd5b600081118015610474575080600160003373ffffffffffffffffffffffffffffffffffffffff1673ffffffffffffffffffffffffffffffffffffffff1681526020019081526020016000205410155b151561047f57600080fd5b600160008373ffffffffffffffffffffffffffffffffffffffff1673ffffffffffffffffffffffffffffffffffffffff1681526020019081526020016000205481600160008573ffffffffffffffffffffffffffffffffffffffff1673ffffffffffffffffffffffffffffffffffffffff168152602001908152602001600020540111151561050d57600080fd5b80600160003373ffffffffffffffffffffffffffffffffffffffff1673ffffffffffffffffffffffffffffffffffffffff1681526020019081526020016000206000828254039250508190555080600160008473ffffffffffffffffffffffffffffffffffffffff1673ffffffffffffffffffffffffffffffffffffffff168152602001908152602001600020600082825401925050819055508173ffffffffffffffffffffffffffffffffffffffff163373ffffffffffffffffffffffffffffffffffffffff167fddf252ad1be2c89b69c2b068fc378daa952ba7f163c4a11628f55a4df523b3ef836040518082815260200191505060405180910390a350505600a165627a7a7230582096adaa976c782b04dc3c24b60e4a0607ac5c8dc1a4d73cd930fe07fe578b54f60029",
  "source": "pragma solidity ^0.4.16;\r\n\r\ncontract LatiumX {\r\n    string public constant name = \"LatiumX\";\r\n    string public constant symbol = \"LATX\";\r\n    uint8 public constant decimals = 8;\r\n    uint256 public constant totalSupply =\r\n    300000000 * 10 ** uint256(decimals);\r\n\r\n    // owner of this contract\r\n    address public owner;\r\n\r\n    // balances for each account\r\n    mapping (address => uint256) public balanceOf;\r\n\r\n    // triggered when tokens are transferred\r\n    event Transfer(address indexed _from, address indexed _to, uint _value);\r\n\r\n    // constructor\r\n    function LatiumX() {\r\n        owner = msg.sender;\r\n        balanceOf[owner] = totalSupply;\r\n    }\r\n\r\n    // transfer the balance from sender's account to another one\r\n    function transfer(address _to, uint256 _value) {\r\n        // prevent transfer to 0x0 address\r\n        require(_to != 0x0);\r\n        // sender and recipient should be different\r\n        require(msg.sender != _to);\r\n        // check if the sender has enough coins\r\n        require(_value > 0 && balanceOf[msg.sender] >= _value);\r\n        // check for overflows\r\n        require(balanceOf[_to] + _value > balanceOf[_to]);\r\n        // subtract coins from sender's account\r\n        balanceOf[msg.sender] -= _value;\r\n        // add coins to recipient's account\r\n        balanceOf[_to] += _value;\r\n        // notify listeners about this transfer\r\n        Transfer(msg.sender, _to, _value);\r\n    }\r\n}",
  "sourcePath": "C:\\Users\\1\\IdeaProjects\\latx-wrapper\\webpack\\contracts\\LatiumX.sol",
  "compiler": {
    "name": "solc",
    "version": "0.4.24+commit.e67f0147.Emscripten.clang"
  },
  "schemaVersion": "2.0.0",
  "updatedAt": "2018-05-28T17:42:20.488Z"
}